:100000000C9446000C9465000C9465000C946500FB
:100010000C9465000C9465000C9465000C946500CC
:100020000C9465000C9465000C9465000C946500BC
:100030000C9465000C94E3000C9465000C9465002E
:100040000C9465000C9465000C9465000C9465009C
:100050000C9465000C9465000C9465000C9465008C
:100060000C9465000C9465000C9465000C9465007C
:100070000C9465000C9465000C9465000C9465006C
:100080000C9465000C9465000C94650011241FBE4F
:10009000CFEFD0E4DEBFCDBF11E0A0E0B1E0E2E5FC
:1000A000FDE000E00BBF02C007900D92A032B10747
:1000B000D9F721E0A0E2B1E001C01D92AC34B20753
:1000C000E1F70E9422050C94A7060C940000CF9340
:1000D000DF9300D000D0CDB7DEB769837A838B83FE
:1000E0009C8389819A81AB81BC818093000190932C
:1000F0000101A0930201B09303018091000190914E
:100100000101A0910201B09103018093210190931C
:100110002201A0932301B093240100000F900F90BF
:100120000F900F90DF91CF910895CF93DF93CDB7CC
:10013000DEB781E890E02BE0FC01208388E890E0C6
:100140002DE730E0FC01318320838FE690E022E050
:10015000FC01208384E890E0FC01118210828091F0
:10016000000190910101A0910201B09103018093DF
:10017000210190932201A0932301B09324018FE5E4
:1001800090E02FE530E0F90120812068FC01208318
:100190000000DF91CF910895CF93DF93CDB7DEB705
:1001A00081E890E0FC0110820000DF91CF9108957A
:1001B000CF93DF93CDB7DEB781E0809320010000BD
:1001C000DF91CF9108951F920F9200905F000F92E0
:1001D000112400905B000F922F933F934F935F93F6
:1001E0006F937F938F939F93AF93BF93EF93FF93FF
:1001F000CF93DF93CDB7DEB780912101909122019B
:10020000A0912301B09124010197A109B109809324
:10021000210190932201A0932301B09324018091A6
:10022000210190912201A0912301B0912401892BF9
:100230008A2B8B2B91F40E94D80080910001909121
:100240000101A0910201B0910301809321019093DB
:100250002201A0932301B09324010000DF91CF91EC
:10026000FF91EF91BF91AF919F918F917F916F918E
:100270005F914F913F912F910F9000925B000F90F3
:1002800000925F000F901F901895CF93DF93CDB72A
:10029000DEB72C970FB6F894DEBF0FBECDBF6D83CF
:1002A0007E838F83988729873A874B875C878D81E8
:1002B0009E81AF81B88529853A854B855C85BC01D7
:1002C000CD010E948506DC01CB0189839A83AB8333
:1002D000BC8389819A81AB81BC81892B8A2B8B2B32
:1002E00029F489859A85AB85BC8511C089859A8555
:1002F000AB85BC858D839E83AF83B88789819A81C6
:10030000AB81BC8189879A87AB87BC87D0CFBC0182
:10031000CD012C960FB6F894DEBF0FBECDBFDF9196
:10032000CF910895CF93DF9300D01F92CDB7DEB762
:1003300089837B836A8389818A3031F48A819B81B6
:10034000BC018DE00E94920180EC90E0FC01808174
:10035000882F90E080729927892BB1F386EC90E08A
:100360002981FC01208380E090E00F900F900F9096
:10037000DF91CF910895CF93DF931F92CDB7DEB772
:1003800089838CE790E02981283028F02CE730E041
:10039000F901208101C02981FC01208310922901EB
:1003A00006C00000809129018F5F80932901809110
:1003B00029018F30B0F300000F90DF91CF910895A5
:1003C000CF93DF93CDB7DEB78AE790E02AE730E03E
:1003D000F9012081206EFC0120830000DF91CF9184
:1003E0000895CF93DF9300D000D0CDB7DEB78B83D5
:1003F0006C831A82198233C08C81813031F488E297
:1004000090E028E0FC01208308C08C81823029F430
:1004100088E290E020E2FC01208388E290E028E27C
:1004200030E0F9012081422F2B81222F30E009801A
:1004300002C0359527950A94E2F72170242BFC0120
:10044000208388E290E028E230E0F90120812260F8
:10045000FC01208389819A8101969A83898389810D
:100460009A8108974CF28C81813051F488E290E0B7
:1004700028E230E0F90120812460FC0120830CC0D7
:100480008C81823049F488E290E028E230E0F90182
:1004900020812061FC01208388E290E0FC01108231
:1004A00000000F900F900F900F90DF91CF91089563
:1004B000CF93DF9300D0CDB7DEB79A83898381E0F5
:1004C0000E94BB0180E88093120189819A81823069
:1004D0009105C1F0833091052CF4009749F0019704
:1004E00061F03EC08330910589F10497A1F138C0D5
:1004F00081E090E09A83898336C082E090E09A831D
:10050000898331C088E790E0FC0180819181833844
:10051000924038F083E090E09A838983109227011B
:1005200022C088E790E0FC01808191818A3B914064
:1005300040F484E090E09A83898382E080932701ED
:1005400012C082E090E09A8389830DC082E090E03F
:100550009A83898308C082E090E09A83898303C0EC
:100560001A821982000089819A818230910509F4EA
:10057000B2C0833091053CF4009709F4AEC00197F6
:1005800009F4ADC0B1C08330910521F0049709F49E
:100590004DC0AAC080912701882F90E08D5E9E4FAC
:1005A000FC0180818E3F08F09CC080912701882F3C
:1005B00090E020912701222F30E02D5E3E4FF9017F
:1005C0002081269520688D5E9E4FFC0120838091BE
:1005D00027018F5F8093270180912701882F90E06A
:1005E00020912701222F30E02D5E3E4FF90120811E
:1005F000269520688D5E9E4FFC0120838091270107
:100600008F5F8093270180912701882F90E02091B0
:100610002701222F30E02D5E3E4FF90120812695E3
:1006200020688D5E9E4FFC0120835BC08091270176
:10063000882F90E08D5E9E4FFC018081803F08F402
:1006400052C080912701882F90E020912701222F0E
:1006500030E02D5E3E4FF9012081222F30E0220F45
:10066000331F21608D5E9E4FFC0120838091270106
:1006700081508093270180912701882F90E020915D
:100680002701222F30E02D5E3E4FF9012081222FDD
:1006900030E0220F331F21608D5E9E4FFC012083CE
:1006A0008091270181508093270180912701882F15
:1006B00090E020912701222F30E02D5E3E4FF9017E
:1006C0002081222F30E0220F331F21608D5E9E4F4C
:1006D000FC01208308C0000007C0000005C0000026
:1006E00003C0000001C0000089819A810F900F9023
:1006F000DF91CF910895CF93DF9300D0CDB7DEB7D0
:100700009A83898381E08093160189819A8182305E
:100710009105C1F0833091052CF4009749F00197C1
:1007200061F036C08330910549F1049761F130C022
:1007300081E090E09A8389832EC082E090E09A83E2
:10074000898329C080914B01813039F483E090E0A6
:100750009A838983109228011EC080914B018230B8
:1007600041F484E090E09A83898382E080932801B9
:1007700012C082E090E09A8389830DC082E090E00D
:100780009A83898308C082E090E09A83898303C0BA
:100790001A821982000089819A818230910509F4B8
:1007A000B2C0833091053CF4009709F4AEC00197C4
:1007B00009F4ADC0B1C08330910521F0049709F46C
:1007C0004DC0AAC080912801882F90E0895E9E4F7D
:1007D000FC0180818E3F08F09CC080912801882F09
:1007E00090E020912801222F30E0295E3E4FF90150
:1007F000208126952068895E9E4FFC012083809190
:1008000028018F5F8093280180912801882F90E034
:1008100020912801222F30E0295E3E4FF9012081EE
:1008200026952068895E9E4FFC01208380912801D7
:100830008F5F8093280180912801882F90E020917C
:100840002801222F30E0295E3E4FF90120812695B4
:100850002068895E9E4FFC0120835BC08091280147
:10086000882F90E0895E9E4FFC018081803F08F4D4
:1008700052C080912801882F90E020912801222FDA
:1008800030E0295E3E4FF9012081222F30E0220F17
:10089000331F2160895E9E4FFC01208380912801D7
:1008A00081508093280180912801882F90E0209129
:1008B0002801222F30E0295E3E4FF9012081222FAE
:1008C00030E0220F331F2160895E9E4FFC012083A0
:1008D0008091280181508093280180912801882FE0
:1008E00090E020912801222F30E0295E3E4FF9014F
:1008F0002081222F30E0220F331F2160895E9E4F1E
:10090000FC01208308C0000007C0000005C00000F3
:1009100003C0000001C0000089819A810F900F90F0
:10092000DF91CF910895CF93DF9300D0CDB7DEB79D
:100930009A83898389819A8182309105D9F08330A5
:1009400091052CF4009761F0019779F027C084306D
:100950009105D1F08430910594F00597D1F01EC037
:1009600081E090E09A83898319C082E090E09A83C5
:10097000898314C083E090E09A8389830FC084E068
:1009800090E09A8389830AC085E090E09A83898306
:1009900005C082E090E09A838983000089819A8172
:1009A0008230910589F0833091052CF40097B1F1E4
:1009B0000197B1F136C084309105D9F084309105AA
:1009C00094F0059729F12DC08091120180932501A3
:1009D000909113018091140198238091150189232E
:1009E000809326011EC0109225018FEF809326016F
:1009F00018C0809116018093250190911701809174
:100A0000180198238091190189238093260109C038
:100A1000109225018FEF8093260103C0000001C0D2
:100A200000008091250161E00E94F1018091260182
:100A300062E00E94F10189819A810F900F90DF910D
:100A4000CF9108950F931F93CF93DF93CDB7DEB768
:100A50002B970FB6F894DEBF0FBECDBF81E290E0BA
:100A6000FC01108282E290E02FEFFC01208384E2FF
:100A700090E0FC01108285E290E02FEFFC012083E2
:100A800087E290E02FEFFC01208388E290E0FC01F8
:100A900010820E94E00186E0EAE1F1E0DE011696B4
:100AA00001900D928A95E1F783E090E09C838B831F
:100AB0008FEF8D838D8180932A0184E690E0A0E002
:100AC000B0E080932B0190932C01A0932D01B09363
:100AD0002E0180912B0190912C01A0912D01B091BC
:100AE0002E0180932F0190933001A0933101B09398
:100AF000320188E592E090933401809333011092A3
:100B0000350181E090E0A0E0B0E080933601909361
:100B10003701A0933801B09339018091360190914B
:100B20003701A0913801B091390180933A01909337
:100B30003B01A0933C01B0933D0183E994E0909385
:100B40003F0180933E018D818093400184E690E0D7
:100B5000A0E0B0E08093410190934201A093430153
:100B6000B09344018091410190914201A0914301D1
:100B7000B09144018093450190934601A0934701B1
:100B8000B09348018BE793E090934A018093490129
:100B900061E070E080E090E00E9467000E949500B4
:100BA00083E290E0FC018081809580934B011A8262
:100BB00019829BC089819A81880F991F9E012F5F9E
:100BC0003F4F820F931F0596FC0180819181FC01AC
:100BD000258136814781508589819A81880F991FA7
:100BE000BE016F5F7F4F860F971F0596FC018081C6
:100BF0009181FC0181819281A381B48128173907F9
:100C00004A075B0709F045C089819A81880F991FBF
:100C10009E012F5F3F4F820F931F0596FC010081BD
:100C2000118189819A81880F991F9E012F5F3F4F03
:100C3000820F931F0596FC0180819181FC01218523
:100C4000328589819A81880F991FAE014F5F5F4F6E
:100C5000840F951F0596FC0180819181FC018081A4
:100C6000082E000C990BF9010995F8018083898100
:100C70009A81880F991F9E012F5F3F4F820F931F0C
:100C80000596FC0180819181FC01158216821782F4
:100C9000108689819A81880F991F9E012F5F3F4F8F
:100CA000820F931F0596FC012081318189819A81F1
:100CB000880F991FAE014F5F5F4F840F951F0596F8
:100CC000FC0180819181FC0185819681A781B0859D
:100CD0000196A11DB11DF90185839683A783B08775
:100CE00089819A8101969A83898329813A818B81AE
:100CF0009C812817390708F45DCF000080912001FE
:100D00008823E1F3109220014BCFA1E21A2EAA1BF7
:100D1000BB1BFD010DC0AA1FBB1FEE1FFF1FA217AB
:100D2000B307E407F50720F0A21BB30BE40BF50BA8
:100D3000661F771F881F991F1A9469F76095709531
:100D4000809590959B01AC01BD01CF010895F89469
:020D5000FFCFD3
:100D520001000000000000020000000092010000FB
:100D6200000080FDFBF701FDFBF72A013501400180
:00000001FF
