:100000000C9446000C9465000C9465000C946500FB
:100010000C9465000C9465000C9465000C946500CC
:100020000C9465000C9465000C9465000C946500BC
:100030000C9465000C94E3000C9465000C9465002E
:100040000C9465000C9465000C9465000C9465009C
:100050000C9465000C9465000C9465000C9465008C
:100060000C9465000C9465000C9465000C9465007C
:100070000C9465000C9465000C9465000C9465006C
:100080000C9465000C9465000C94650011241FBE4F
:10009000CFEFD0E4DEBFCDBF11E0A0E0B1E0E2E5FC
:1000A000FAE000E00BBF02C007900D92A631B10745
:1000B000D9F721E0A6E1B1E001C01D92A633B20755
:1000C000E1F70E94CF030C9427050C940000CF9316
:1000D000DF9300D000D0CDB7DEB769837A838B83FE
:1000E0009C8389819A81AB81BC818093000190932C
:1000F0000101A0930201B09303018091000190914E
:100100000101A0910201B091030180931701909326
:100110001801A0931901B0931A0100000F900F90DD
:100120000F900F90DF91CF910895CF93DF93CDB7CC
:10013000DEB781E890E02BE0FC01208388E890E0C6
:100140002DE730E0FC01318320838FE690E022E050
:10015000FC01208384E890E0FC01118210828091F0
:10016000000190910101A0910201B09103018093DF
:10017000170190931801A0931901B0931A018FE50C
:1001800090E02FE530E0F90120812068FC01208318
:100190000000DF91CF910895CF93DF93CDB7DEB705
:1001A00081E890E0FC0110820000DF91CF9108957A
:1001B000CF93DF93CDB7DEB781E0809316010000C7
:1001C000DF91CF9108951F920F9200905F000F92E0
:1001D000112400905B000F922F933F934F935F93F6
:1001E0006F937F938F939F93AF93BF93EF93FF93FF
:1001F000CF93DF93CDB7DEB78091170190911801AF
:10020000A0911901B0911A010197A109B109809338
:10021000170190931801A0931901B0931A018091CE
:10022000170190911801A0911901B0911A01892B21
:100230008A2B8B2B91F40E94D80080910001909121
:100240000101A0910201B0910301809317019093E5
:100250001801A0931901B0931A010000DF91CF910A
:10026000FF91EF91BF91AF919F918F917F916F918E
:100270005F914F913F912F910F9000925B000F90F3
:1002800000925F000F901F901895CF93DF93CDB72A
:10029000DEB72C970FB6F894DEBF0FBECDBF6D83CF
:1002A0007E838F83988729873A874B875C878D81E8
:1002B0009E81AF81B88529853A854B855C85BC01D7
:1002C000CD010E940505DC01CB0189839A83AB83B4
:1002D000BC8389819A81AB81BC81892B8A2B8B2B32
:1002E00029F489859A85AB85BC8511C089859A8555
:1002F000AB85BC858D839E83AF83B88789819A81C6
:10030000AB81BC8189879A87AB87BC87D0CFBC0182
:10031000CD012C960FB6F894DEBF0FBECDBFDF9196
:10032000CF910895CF93DF9300D01F92CDB7DEB762
:1003300089837B836A8389818A3031F48A819B81B6
:10034000BC018DE00E94920180EC90E0FC01808174
:10035000882F90E080729927892BB1F386EC90E08A
:100360002981FC01208380E090E00F900F900F9096
:10037000DF91CF910895CF93DF931F92CDB7DEB772
:1003800089838CE790E02981283028F02CE730E041
:10039000F901208101C02981FC01208310921E01F6
:1003A00006C0000080911E018F5F80931E01809126
:1003B0001E018F30B0F300000F90DF91CF910895B0
:1003C000CF93DF93CDB7DEB78AE790E02AE730E03E
:1003D000F9012081206EFC0120830000DF91CF9184
:1003E0000895CF93DF9300D000D0CDB7DEB78B83D5
:1003F0006C831A82198233C08C81813031F488E297
:1004000090E028E0FC01208308C08C81823029F430
:1004100088E290E020E2FC01208388E290E028E27C
:1004200030E0F9012081422F2B81222F30E009801A
:1004300002C0359527950A94E2F72170242BFC0120
:10044000208388E290E028E230E0F90120812260F8
:10045000FC01208389819A8101969A83898389810D
:100460009A8108974CF28C81813051F488E290E0B7
:1004700028E230E0F90120812460FC0120830CC0D7
:100480008C81823049F488E290E028E230E0F90182
:1004900020812061FC01208388E290E0FC01108231
:1004A00000000F900F900F900F90DF91CF91089563
:1004B000CF93DF9300D0CDB7DEB79A83898381E0F5
:1004C0000E94BB0180E88093120189819A81823069
:1004D0009105C1F0833091052CF4009749F0019704
:1004E00061F03EC08330910589F10497A1F138C0D5
:1004F00081E090E09A83898336C082E090E09A831D
:10050000898331C088E790E0FC0180819181833844
:10051000924038F083E090E09A83898310921D0125
:1005200022C088E790E0FC01808191818A3B914064
:1005300040F484E090E09A83898382E080931D01F7
:1005400012C082E090E09A8389830DC082E090E03F
:100550009A83898308C082E090E09A83898303C0EC
:100560001A821982000089819A818230910509F4EA
:10057000B2C0833091053CF4009709F4AEC00197F6
:1005800009F4ADC0B1C08330910521F0049709F49E
:100590004DC0AAC080911D01882F90E08D5E9E4FB6
:1005A000FC0180818E3F08F09CC080911D01882F46
:1005B00090E020911D01222F30E02D5E3E4FF90189
:1005C0002081269520688D5E9E4FFC0120838091BE
:1005D0001D018F5F80931D0180911D01882F90E088
:1005E00020911D01222F30E02D5E3E4FF901208128
:1005F000269520688D5E9E4FFC01208380911D0111
:100600008F5F80931D0180911D01882F90E02091C4
:100610001D01222F30E02D5E3E4FF90120812695ED
:1006200020688D5E9E4FFC0120835BC080911D0180
:10063000882F90E08D5E9E4FFC018081803F08F402
:1006400052C080911D01882F90E020911D01222F22
:1006500030E02D5E3E4FF9012081222F30E0220F45
:10066000331F21608D5E9E4FFC01208380911D0110
:10067000815080931D0180911D01882F90E0209171
:100680001D01222F30E02D5E3E4FF9012081222FE7
:1006900030E0220F331F21608D5E9E4FFC012083CE
:1006A00080911D01815080931D0180911D01882F33
:1006B00090E020911D01222F30E02D5E3E4FF90188
:1006C0002081222F30E0220F331F21608D5E9E4F4C
:1006D000FC01208308C0000007C0000005C0000026
:1006E00003C0000001C0000089819A810F900F9023
:1006F000DF91CF910895CF93DF9300D0CDB7DEB7D0
:100700009A83898385E290E024E0FC01208389813B
:100710009A818130910559F08230910569F0892BD9
:1007200009F00FC081E090E09A8389830AC082E0DB
:1007300090E09A83898305C081E090E09A83898361
:10074000000089819A818130910531F082309105D4
:1007500091F0892B91F012C08091120180931B01BE
:1007600090911301809114019823809115018923A0
:1007700080931C0103C0000001C0000080911B0198
:1007800061E00E94F10180911C0162E00E94F10190
:1007900089819A810F900F90DF91CF9108950F93E7
:1007A0001F93CF93DF93CDB7DEB729970FB6F89499
:1007B000DEBF0FBECDBF81E290E0FC01108282E27D
:1007C00090E02FEFFC01208384E290E02FEFFC010A
:1007D000208385E290E0FC01108287E290E02FEF19
:1007E000FC01208388E290E0FC0110820E94E0017D
:1007F0008FE191E09F838E838AE291E099878887D9
:1008000082E090E09C838B838FEF8D838D8180933A
:100810001F0188EC90E0A0E0B0E08093200190936D
:100820002101A0932201B093230180912001909196
:100830002101A0912201B091230180932401909382
:100840002501A0932601B093270188E592E09093BB
:1008500029018093280110922A0181E090E0A0E014
:10086000B0E080932B0190932C01A0932D01B093C5
:100870002E0180912B0190912C01A0912D01B0911E
:100880002E0180932F0190933001A0933101B093FA
:1008900032018BE793E0909334018093330161E060
:1008A00070E080E090E00E9467000E9495001A824C
:1008B00019829BC089819A81880F991F9E012F5FA1
:1008C0003F4F820F931F0596FC0180819181FC01AF
:1008D000258136814781508589819A81880F991FAA
:1008E000BE016F5F7F4F860F971F0596FC018081C9
:1008F0009181FC0181819281A381B48128173907FC
:100900004A075B0709F045C089819A81880F991FC2
:100910009E012F5F3F4F820F931F0596FC010081C0
:10092000118189819A81880F991F9E012F5F3F4F06
:10093000820F931F0596FC0180819181FC01218526
:10094000328589819A81880F991FAE014F5F5F4F71
:10095000840F951F0596FC0180819181FC018081A7
:10096000082E000C990BF9010995F8018083898103
:100970009A81880F991F9E012F5F3F4F820F931F0F
:100980000596FC0180819181FC01158216821782F7
:10099000108689819A81880F991F9E012F5F3F4F92
:1009A000820F931F0596FC012081318189819A81F4
:1009B000880F991FAE014F5F5F4F840F951F0596FB
:1009C000FC0180819181FC0185819681A781B085A0
:1009D0000196A11DB11DF90185839683A783B08778
:1009E00089819A8101969A83898329813A818B81B1
:1009F0009C812817390708F45DCF0000809116010B
:100A00008823E1F31092160152CFA1E21A2EAA1BFD
:100A1000BB1BFD010DC0AA1FBB1FEE1FFF1FA217AE
:100A2000B307E407F50720F0A21BB30BE40BF50BAB
:100A3000661F771F881F991F1A9469F76095709534
:100A4000809590959B01AC01BD01CF010895F8946C
:020A5000FFCFD6
:100A520001000000000000020000000092010000FE
:060A6200000080FDFBF71F
:00000001FF
