:100000000C946A000C9489000C9489000C9489006B
:100010000C9489000C9489000C9489000C9489003C
:100020000C9489000C9489000C9489000C9489002C
:100030000C9489000C9407010C9489000C9489009D
:100040000C9489000C9489000C9489000C9489000C
:100050000C9489000C9489000C9489000C948900FC
:100060000C9489000C9489000C9489000C948900EC
:100070000C9489000C9489000C9489000C948900DC
:100080000C9489000C9489000C948900D204D70444
:10009000DC04E104E604EB04F004F5044B054B0535
:1000A00010051F05250534053A05430579057E052C
:1000B0008305BC0520065906BD06210785078A076A
:1000C0002708AA07B107B707C307C907D807E40776
:1000D000F3070C0811241FBECFEFD0E4DEBFCDBF65
:1000E00011E0A0E0B1E0ECEFF3E100E00BBF02C0F3
:1000F00007900D92A232B107D9F721E0A2E2B1E058
:1001000001C01D92AF35B207E1F70E9440080C9480
:10011000FC090C940000CF93DF9300D000D0CDB742
:10012000DEB769837A838B839C8389819A81AB81D3
:10013000BC818093000190930101A0930201B093D0
:1001400003018091000190910101A0910201B09101
:1001500003018093230190932401A0932501B09380
:10016000260100000F900F900F900F90DF91CF911C
:100170000895CF93DF93CDB7DEB781E890E02BE011
:10018000FC01208388E890E02DE730E0FC0131831A
:1001900020838FE690E022E0FC01208384E890E059
:1001A000FC01118210828091000190910101A091C7
:1001B0000201B09103018093230190932401A09345
:1001C0002501B09326018FE590E02FE530E0F9019D
:1001D00020812068FC0120830000DF91CF910895E9
:1001E000CF93DF93CDB7DEB781E890E0FC011082BA
:1001F0000000DF91CF910895CF93DF93CDB7DEB7A5
:1002000081E0809322010000DF91CF9108951F9239
:100210000F9200905F000F92112400905B000F92EC
:100220002F933F934F935F936F937F938F939F93FE
:10023000AF93BF93EF93FF93CF93DF93CDB7DEB729
:100240008091230190912401A0912501B091260174
:100250000197A109B1098093230190932401A093F0
:100260002501B09326018091230190912401A09152
:100270002501B0912601892B8A2B8B2B91F40E94AA
:10028000FC008091000190910101A0910201B091C8
:1002900003018093230190932401A0932501B0933F
:1002A00026010000DF91CF91FF91EF91BF91AF91B7
:1002B0009F918F917F916F915F914F913F912F917E
:1002C0000F9000925B000F9000925F000F901F90C4
:1002D0001895CF93DF93CDB7DEB72C970FB6F89470
:1002E000DEBF0FBECDBF6D837E838F839887298746
:1002F0003A874B875C878D819E81AF81B885298540
:100300003A854B855C85BC01CD010E94D109DC0199
:10031000CB0189839A83AB83BC8389819A81AB812A
:10032000BC81892B8A2B8B2B29F489859A85AB85F7
:10033000BC8511C089859A85AB85BC858D839E83DC
:10034000AF83B88789819A81AB81BC8189879A877D
:10035000AB87BC87D0CFBC01CD012C960FB6F894EB
:10036000DEBF0FBECDBFDF91CF910895CF93DF9356
:1003700000D01F92CDB7DEB789837B836A838981E2
:100380008A3031F48A819B81BC018DE00E94B601E4
:1003900080EC90E0FC018081882F90E080729927AA
:1003A000892BB1F386EC90E02981FC01208380E069
:1003B00090E00F900F900F90DF91CF910895CF9321
:1003C000DF931F92CDB7DEB789838CE790E0298158
:1003D000283028F02CE730E0F901208101C0298184
:1003E000FC0120831092310106C000008091310190
:1003F0008F5F80933101809131018F30B0F3000025
:100400000F90DF91CF910895CF93DF93CDB7DEB7F3
:100410008AE790E02AE730E0F9012081206EFC01B4
:1004200020830000DF91CF910895CF93DF9300D018
:1004300000D0CDB7DEB78B836C831A82198233C0AC
:100440008C81813031F488E290E028E0FC01208347
:1004500008C08C81823029F488E290E020E2FC011F
:10046000208388E290E028E230E0F9012081422FE9
:100470002B81222F30E0098002C0359527950A9400
:10048000E2F72170242BFC01208388E290E028E22F
:1004900030E0F90120812260FC01208389819A816A
:1004A00001969A83898389819A8108974CF28C817D
:1004B000813051F488E290E028E230E0F9012081B7
:1004C0002460FC0120830CC08C81823049F488E2D6
:1004D00090E028E230E0F90120812061FC012083D6
:1004E00088E290E0FC01108200000F900F900F90C6
:1004F0000F90DF91CF910895CF93DF9300D0CDB7C8
:10050000DEB79A83898381E00E94DF0180E88093CF
:10051000120189819A8182309105C1F08330910561
:100520002CF4009749F0019761F03EC083309105AB
:1005300089F10497A1F138C081E090E09A83898322
:1005400036C082E090E09A83898331C088E790E0EA
:10055000FC01808191818338924038F083E090E003
:100560009A8389831092290122C088E790E0FC01D8
:10057000808191818A3B914040F484E090E09A83AD
:10058000898382E08093290112C082E090E09A83FF
:1005900089830DC082E090E09A83898308C082E05D
:1005A00090E09A83898303C01A82198200008981AE
:1005B0009A818230910509F4B2C0833091053CF4F0
:1005C000009709F4AEC0019709F4ADC0B1C0833003
:1005D000910521F0049709F44DC0AAC0809129012A
:1005E000882F90E08D5E9E4FFC0180818E3F08F049
:1005F0009CC080912901882F90E020912901222F11
:1006000030E02D5E3E4FF9012081269520688D5EF9
:100610009E4FFC012083809129018F5F80932901E7
:1006200080912901882F90E020912901222F30E02C
:100630002D5E3E4FF9012081269520688D5E9E4FEC
:10064000FC012083809129018F5F80932901809193
:100650002901882F90E020912901222F30E02D5E82
:100660003E4FF9012081269520688D5E9E4FFC014A
:1006700020835BC080912901882F90E08D5E9E4F82
:10068000FC018081803F08F452C080912901882FAD
:1006900090E020912901222F30E02D5E3E4FF9019C
:1006A0002081222F30E0220F331F21608D5E9E4F6C
:1006B000FC01208380912901815080932901809140
:1006C0002901882F90E020912901222F30E02D5E12
:1006D0003E4FF9012081222F30E0220F331F21608D
:1006E0008D5E9E4FFC012083809129018150809373
:1006F000290180912901882F90E020912901222F42
:1007000030E02D5E3E4FF9012081222F30E0220F94
:10071000331F21608D5E9E4FFC01208308C00000C6
:1007200007C0000005C0000003C0000001C00000B9
:1007300089819A810F900F90DF91CF910895CF9387
:10074000DF9300D0CDB7DEB79A83898381E08093B1
:10075000160189819A8182309105C1F0833091051B
:100760002CF4009749F0019761F036C08330910571
:1007700049F1049761F130C081E090E09A83898368
:100780002EC082E090E09A83898329C080915E0127
:10079000813039F483E090E09A83898310922A01B2
:1007A0001EC080915E01823041F484E090E09A8323
:1007B000898382E080932A0112C082E090E09A83CC
:1007C00089830DC082E090E09A83898308C082E02B
:1007D00090E09A83898303C01A821982000089817C
:1007E0009A818230910509F4B2C0833091053CF4BE
:1007F000009709F4AEC0019709F4ADC0B1C08330D1
:10080000910521F0049709F44DC0AAC080912A01F6
:10081000882F90E0895E9E4FFC0180818E3F08F01A
:100820009CC080912A01882F90E020912A01222FDC
:1008300030E0295E3E4FF901208126952068895ECF
:100840009E4FFC01208380912A018F5F80932A01B3
:1008500080912A01882F90E020912A01222F30E0F8
:10086000295E3E4FF901208126952068895E9E4FC2
:10087000FC01208380912A018F5F80932A0180915F
:100880002A01882F90E020912A01222F30E0295E52
:100890003E4FF901208126952068895E9E4FFC011C
:1008A00020835BC080912A01882F90E0895E9E4F53
:1008B000FC018081803F08F452C080912A01882F7A
:1008C00090E020912A01222F30E0295E3E4FF9016D
:1008D0002081222F30E0220F331F2160895E9E4F3E
:1008E000FC01208380912A01815080932A0180910C
:1008F0002A01882F90E020912A01222F30E0295EE2
:100900003E4FF9012081222F30E0220F331F21605A
:10091000895E9E4FFC01208380912A018150809343
:100920002A0180912A01882F90E020912A01222F0C
:1009300030E0295E3E4FF9012081222F30E0220F66
:10094000331F2160895E9E4FFC01208308C0000098
:1009500007C0000005C0000003C0000001C0000087
:1009600089819A810F900F90DF91CF910895CF9355
:10097000DF9300D0CDB7DEB79A83898389819A81CE
:10098000092E000CAA0BBB0B40E050E027E030E042
:10099000841B950B2817390768F18A5B9F4FFC0170
:1009A0000C94F30981E090E09A83898324C082E06B
:1009B00090E09A8389831FC083E090E09A838983C3
:1009C0001AC084E090E09A83898315C085E090E0A6
:1009D0009A83898310C086E090E09A8389830BC054
:1009E00087E090E09A83898306C082E090E09A8352
:1009F000898301C0000089819A81092E000CAA0B0D
:100A0000BB0B40E050E027E030E0841B950B28173B
:100A1000390708F43EC0825B9F4FFC010C94F30938
:100A2000809112018093270190911301809114010C
:100A30009823809115018923809328012DC010925D
:100A400027018FEF8093280127C0809116018093A2
:100A50002701909117018091180198238091190125
:100A600089238093280118C0109227018FEF80936B
:100A7000280112C080912B018093270180912C01C5
:100A80008093280109C0109227018FEF80932801DD
:100A900003C0000001C000008091270161E00E94B6
:100AA00015028091280162E00E94150289819A81D5
:100AB0000F900F90DF91CF910895CF93DF9300D0E7
:100AC000CDB7DEB79A83898389819A81092E000C7C
:100AD000AA0BBB0B40E050E029E030E0841B950BF3
:100AE0002817390708F41BC28A5A9F4FFC010C943F
:100AF000F30981E090E09A83898317C282E090E055
:100B00009A83898312C280912B01803428F482E079
:100B100090E09A83898306C280912B01803458F03B
:100B20009091130180912C01981729F483E090E0B3
:100B30009A83898320C080912B01803458F0909152
:100B4000140180912C01981729F484E090E09A8395
:100B5000898311C080912B01803408F4E3C1909106
:100B6000150180912C01981709F0DCC185E090E017
:100B70009A838983D7C1D6C180912B01823049F0F5
:100B800080912C018E3F28F483E090E09A83898342
:100B900056C080912B01833048F080912C018E3F0C
:100BA00028F085E090E09A83898349C080912B01E9
:100BB000823079F49091170180912C01981749F4B3
:100BC00080912C018E3F29F487E090E09A838983FD
:100BD00036C080912B01823079F490911701809179
:100BE0002C01981749F480912C018E3F29F086E062
:100BF00090E09A83898323C080912B01823059F43D
:100C00009091180180912C01981729F482E090E0CE
:100C10009A83898314C080912B01823059F490917A
:100C2000190180912C01981729F487E090E09A83AC
:100C3000898305C088E090E09A83898376C175C175
:100C400080912B01833028F084E090E09A8389839F
:100C50006BC180912B01833058F4909117018091E2
:100C60002C01981729F486E090E09A83898320C0AC
:100C700080912B01833058F49091180180912C01C0
:100C8000981729F482E090E09A83898311C08091BB
:100C90002B01833008F048C19091190180912C01FB
:100CA000981709F041C187E090E09A8389833CC19D
:100CB0003BC180912B01823049F080912C01803F13
:100CC00028F085E090E09A83898356C080912B01BB
:100CD000833048F080912C01803F28F483E090E03D
:100CE0009A83898349C080912B01823059F4909175
:100CF000170180912C01981729F486E090E09A83DF
:100D000089833AC080912B01823059F49091180167
:100D100080912C01981729F482E090E09A838983CE
:100D20002BC080912B01823079F490911901809130
:100D30002C01981749F480912C018F3E29F486E00C
:100D400090E09A83898318C080912B01823079F4D6
:100D50009091190180912C01981749F480912C01F0
:100D60008F3E29F087E090E09A83898305C088E070
:100D700090E09A838983D9C0D8C080912B018034B8
:100D800049F080912C018E3F28F486E090E09A8310
:100D9000898356C080912B01803448F480912C01C6
:100DA0008E3F28F087E090E09A83898349C0809144
:100DB0002B01803479F49091130180912C019817C4
:100DC00049F480912C018E3F29F485E090E09A83CC
:100DD000898336C080912B01803479F4909113017E
:100DE00080912C01981749F480912C018E3F29F0B5
:100DF00083E090E09A83898323C080912B01803423
:100E000059F49091140180912C01981729F484E0F1
:100E100090E09A83898314C080912B01803459F427
:100E20009091150180912C01981729F485E090E0AC
:100E30009A83898305C089E090E09A83898375C08D
:100E400074C080912B01803449F080912C01803F47
:100E500028F087E090E09A83898356C080912B0127
:100E6000803448F480912C01803F28F486E090E0A3
:100E70009A83898349C080912B01803459F49091E1
:100E8000130180912C01981729F483E090E09A8354
:100E900089833AC080912B01803459F490911401D8
:100EA00080912C01981729F484E090E09A8389833B
:100EB0002BC080912B01803479F4909115018091A1
:100EC0002C01981749F480912C018F3E29F483E07E
:100ED00090E09A83898318C080912B01803479F443
:100EE0009091150180912C01981749F480912C0163
:100EF0008F3E29F085E090E09A83898305C089E0E0
:100F000090E09A83898311C010C081E090E09A83B9
:100F100089830BC081E090E09A83898306C01A829E
:100F2000198203C0000001C0000089819A81092E46
:100F3000000CAA0BBB0B40E050E029E030E0841B22
:100F4000950B2817390708F480C0805A9F4FFC0181
:100F50000C94F30984E080932B018BEF80932C0198
:100F600077C080912B01880F80932B0171C08091F5
:100F70002B01869580932B0180912C0186958068AA
:100F800080932C0165C080912B01869580932B0165
:100F90005FC080912B01869580932B0180912C015D
:100FA000882F90E0880F991F816080932C0150C09A
:100FB00080912B01880F80932B0180912C018695C5
:100FC000806880932C0144C080912B01880F80930E
:100FD0002B0180912C01882F90E0880F991F816050
:100FE00080932C0135C080912D0190912E010397A3
:100FF00050F480912D0190912E01019690932E0135
:1010000080932D0125C010922E0110922D01109277
:10101000300110922F011CC080912F01909130015E
:10102000039750F480912F01909130010196909395
:10103000300180932F010CC01092300110922F01CB
:1010400010922E0110922D0103C0000001C000007B
:101050008BE290E020912F0130913001422F440F1C
:10106000440F440F20912D0130912E01242BFC01BF
:10107000208389819A810F900F90DF91CF910895FD
:101080000F931F93CF93DF93CDB7DEB72D970FB696
:10109000F894DEBF0FBECDBF81E290E0FC0110826C
:1010A00082E290E02FEFFC01208384E290E0FC01DB
:1010B000108285E290E02FEFFC01208387E290E030
:1010C0002FEFFC01208388E290E0FC0110828AE28D
:1010D00090E02FEFFC0120838BE290E0FC01108276
:1010E0000E94040288E0EAE1F1E0DE011696019038
:1010F0000D928A95E1F784E090E09C838B838FEFDB
:101100008D838D818093320184E690E0A0E0B0E091
:101110008093330190933401A0933501B09336014D
:101120008091330190913401A0913501B091360145
:101130008093370190933801A0933901B0933A011D
:101140008CE792E090933C0180933B0110923D012B
:1011500081E090E0A0E0B0E080933E0190933F01F9
:10116000A0934001B093410180913E0190913F01D5
:10117000A0914001B09141018093420190934301BD
:10118000A0934401B093450187EB94E0909347010D
:10119000809346018D818093480184E690E0A0E031
:1011A000B0E08093490190934A01A0934B01B09322
:1011B0004C018091490190914A01A0914B01B0915D
:1011C0004C0180934D0190934E01A0934F01B09339
:1011D00050018FE993E090935201809351018D81EA
:1011E000809353018CE291E0A0E0B0E08093540141
:1011F00090935501A0935601B093570180915401EB
:1012000090915501A0915601B091570180935801DA
:1012100090935901A0935A01B0935B018DE595E03D
:1012200090935D0180935C0161E070E080E090E06C
:101230000E948B000E94B90083E290E0FC01808153
:10124000809580935E011A8219829BC089819A8160
:10125000880F991F9E012F5F3F4F820F931F0596A6
:10126000FC0180819181FC01258136814781508577
:1012700089819A81880F991FBE016F5F7F4F860F0A
:10128000971F0596FC0180819181FC0181819281EB
:10129000A381B481281739074A075B0709F045C0C5
:1012A00089819A81880F991F9E012F5F3F4F820F7E
:1012B000931F0596FC010081118189819A81880F15
:1012C000991F9E012F5F3F4F820F931F0596FC01D0
:1012D00080819181FC012185328589819A81880FE5
:1012E000991FAE014F5F5F4F840F951F0596FC015C
:1012F00080819181FC018081082E000C990BF901FD
:101300000995F801808389819A81880F991F9E0130
:101310002F5F3F4F820F931F0596FC0180819181C3
:10132000FC01158216821782108689819A81880FA6
:10133000991F9E012F5F3F4F820F931F0596FC015F
:101340002081318189819A81880F991FAE014F5F79
:101350005F4F840F951F0596FC0180819181FC01F0
:1013600085819681A781B0850196A11DB11DF901E6
:1013700085839683A783B08789819A8101969A8312
:10138000898329813A818B819C812817390708F448
:101390005DCF0000809122018823E1F310922201A9
:1013A0004BCFA1E21A2EAA1BBB1BFD010DC0AA1F29
:1013B000BB1FEE1FFF1FA217B307E407F50720F0BE
:1013C000A21BB30BE40BF50B661F771F881F991F39
:1013D0001A9469F760957095809590959B01AC0182
:1013E000BD01CF010895EE0FFF1F0024001C0BBEAE
:0C13F0000790F691E02D0994F894FFCFCF
:1013FC00010000000000000200000000B601000027
:10140C00000080FDFBF701FDFBF732013D014801B7
:02141C0053017A
:00000001FF
